{
  "_format": "hh-sol-artifact-1",
  "contractName": "Insurance",
  "sourceName": "contracts/Insurace.sol",
  "abi": [
    {
      "inputs": [],
      "stateMutability": "nonpayable",
      "type": "constructor"
    },
    {
      "anonymous": false,
      "inputs": [
        {
          "indexed": false,
          "internalType": "uint256",
          "name": "id",
          "type": "uint256"
        },
        {
          "indexed": false,
          "internalType": "string",
          "name": "policyHolder",
          "type": "string"
        },
        {
          "indexed": false,
          "internalType": "string",
          "name": "policyDetails",
          "type": "string"
        }
      ],
      "name": "PolicyCreated",
      "type": "event"
    },
    {
      "inputs": [
        {
          "internalType": "string",
          "name": "_policyHolder",
          "type": "string"
        },
        {
          "internalType": "string",
          "name": "_policyDetails",
          "type": "string"
        }
      ],
      "name": "addPolicy",
      "outputs": [],
      "stateMutability": "nonpayable",
      "type": "function"
    },
    {
      "inputs": [],
      "name": "getPolicies",
      "outputs": [
        {
          "components": [
            {
              "internalType": "uint256",
              "name": "id",
              "type": "uint256"
            },
            {
              "internalType": "string",
              "name": "policyHolder",
              "type": "string"
            },
            {
              "internalType": "string",
              "name": "policyDetails",
              "type": "string"
            }
          ],
          "internalType": "struct Insurance.Policy[]",
          "name": "",
          "type": "tuple[]"
        }
      ],
      "stateMutability": "view",
      "type": "function"
    },
    {
      "inputs": [
        {
          "internalType": "uint256",
          "name": "_policyId",
          "type": "uint256"
        }
      ],
      "name": "getPolicy",
      "outputs": [
        {
          "components": [
            {
              "internalType": "uint256",
              "name": "id",
              "type": "uint256"
            },
            {
              "internalType": "string",
              "name": "policyHolder",
              "type": "string"
            },
            {
              "internalType": "string",
              "name": "policyDetails",
              "type": "string"
            }
          ],
          "internalType": "struct Insurance.Policy",
          "name": "",
          "type": "tuple"
        }
      ],
      "stateMutability": "view",
      "type": "function"
    },
    {
      "inputs": [],
      "name": "nextPolicyId",
      "outputs": [
        {
          "internalType": "uint256",
          "name": "",
          "type": "uint256"
        }
      ],
      "stateMutability": "view",
      "type": "function"
    },
    {
      "inputs": [],
      "name": "owner",
      "outputs": [
        {
          "internalType": "address",
          "name": "",
          "type": "address"
        }
      ],
      "stateMutability": "view",
      "type": "function"
    },
    {
      "inputs": [
        {
          "internalType": "uint256",
          "name": "",
          "type": "uint256"
        }
      ],
      "name": "policies",
      "outputs": [
        {
          "internalType": "uint256",
          "name": "id",
          "type": "uint256"
        },
        {
          "internalType": "string",
          "name": "policyHolder",
          "type": "string"
        },
        {
          "internalType": "string",
          "name": "policyDetails",
          "type": "string"
        }
      ],
      "stateMutability": "view",
      "type": "function"
    }
  ],
  "bytecode": "0x608060405234801561001057600080fd5b5033600260006101000a81548173ffffffffffffffffffffffffffffffffffffffff021916908373ffffffffffffffffffffffffffffffffffffffff1602179055506111be806100616000396000f3fe608060405234801561001057600080fd5b50600436106100625760003560e01c80632b07fce3146100675780633b04f6f11461009757806387326741146100b55780638da5cb5b146100d1578063cad0b8db146100ef578063d3e894831461010d575b600080fd5b610081600480360381019061007c91906107c4565b61013f565b60405161008e91906108e7565b60405180910390f35b61009f6102ed565b6040516100ac9190610a22565b60405180910390f35b6100cf60048036038101906100ca9190610b79565b61047a565b005b6100d96105e3565b6040516100e69190610c32565b60405180910390f35b6100f7610609565b6040516101049190610c5c565b60405180910390f35b610127600480360381019061012291906107c4565b61060f565b60405161013693929190610cc1565b60405180910390f35b610147610759565b600154821061018b576040517f08c379a000000000000000000000000000000000000000000000000000000000815260040161018290610d52565b60405180910390fd5b6000828154811061019f5761019e610d72565b5b9060005260206000209060030201604051806060016040529081600082015481526020016001820180546101d290610dd0565b80601f01602080910402602001604051908101604052809291908181526020018280546101fe90610dd0565b801561024b5780601f106102205761010080835404028352916020019161024b565b820191906000526020600020905b81548152906001019060200180831161022e57829003601f168201915b5050505050815260200160028201805461026490610dd0565b80601f016020809104026020016040519081016040528092919081815260200182805461029090610dd0565b80156102dd5780601f106102b2576101008083540402835291602001916102dd565b820191906000526020600020905b8154815290600101906020018083116102c057829003601f168201915b5050505050815250509050919050565b60606000805480602002602001604051908101604052809291908181526020016000905b8282101561047157838290600052602060002090600302016040518060600160405290816000820154815260200160018201805461034e90610dd0565b80601f016020809104026020016040519081016040528092919081815260200182805461037a90610dd0565b80156103c75780601f1061039c576101008083540402835291602001916103c7565b820191906000526020600020905b8154815290600101906020018083116103aa57829003601f168201915b505050505081526020016002820180546103e090610dd0565b80601f016020809104026020016040519081016040528092919081815260200182805461040c90610dd0565b80156104595780601f1061042e57610100808354040283529160200191610459565b820191906000526020600020905b81548152906001019060200180831161043c57829003601f168201915b50505050508152505081526020019060010190610311565b50505050905090565b600260009054906101000a900473ffffffffffffffffffffffffffffffffffffffff1673ffffffffffffffffffffffffffffffffffffffff163373ffffffffffffffffffffffffffffffffffffffff161461050a576040517f08c379a000000000000000000000000000000000000000000000000000000000815260040161050190610e73565b60405180910390fd5b600060405180606001604052806001548152602001848152602001838152509080600181540180825580915050600190039060005260206000209060030201600090919091909150600082015181600001556020820151816001019081610571919061103f565b506040820151816002019081610587919061103f565b5050507f5520e5a4f605c493e6ed3b083768f9063e7a093ad7ca028527cbcf2e45f9e82860015483836040516105bf93929190610cc1565b60405180910390a1600160008154809291906105da90611140565b91905055505050565b600260009054906101000a900473ffffffffffffffffffffffffffffffffffffffff1681565b60015481565b6000818154811061061f57600080fd5b906000526020600020906003020160009150905080600001549080600101805461064890610dd0565b80601f016020809104026020016040519081016040528092919081815260200182805461067490610dd0565b80156106c15780601f10610696576101008083540402835291602001916106c1565b820191906000526020600020905b8154815290600101906020018083116106a457829003601f168201915b5050505050908060020180546106d690610dd0565b80601f016020809104026020016040519081016040528092919081815260200182805461070290610dd0565b801561074f5780601f106107245761010080835404028352916020019161074f565b820191906000526020600020905b81548152906001019060200180831161073257829003601f168201915b5050505050905083565b60405180606001604052806000815260200160608152602001606081525090565b6000604051905090565b600080fd5b600080fd5b6000819050919050565b6107a18161078e565b81146107ac57600080fd5b50565b6000813590506107be81610798565b92915050565b6000602082840312156107da576107d9610784565b5b60006107e8848285016107af565b91505092915050565b6107fa8161078e565b82525050565b600081519050919050565b600082825260208201905092915050565b60005b8381101561083a57808201518184015260208101905061081f565b60008484015250505050565b6000601f19601f8301169050919050565b600061086282610800565b61086c818561080b565b935061087c81856020860161081c565b61088581610846565b840191505092915050565b60006060830160008301516108a860008601826107f1565b50602083015184820360208601526108c08282610857565b915050604083015184820360408601526108da8282610857565b9150508091505092915050565b600060208201905081810360008301526109018184610890565b905092915050565b600081519050919050565b600082825260208201905092915050565b6000819050602082019050919050565b600060608301600083015161094d60008601826107f1565b50602083015184820360208601526109658282610857565b9150506040830151848203604086015261097f8282610857565b9150508091505092915050565b60006109988383610935565b905092915050565b6000602082019050919050565b60006109b882610909565b6109c28185610914565b9350836020820285016109d485610925565b8060005b85811015610a1057848403895281516109f1858261098c565b94506109fc836109a0565b925060208a019950506001810190506109d8565b50829750879550505050505092915050565b60006020820190508181036000830152610a3c81846109ad565b905092915050565b600080fd5b600080fd5b7f4e487b7100000000000000000000000000000000000000000000000000000000600052604160045260246000fd5b610a8682610846565b810181811067ffffffffffffffff82111715610aa557610aa4610a4e565b5b80604052505050565b6000610ab861077a565b9050610ac48282610a7d565b919050565b600067ffffffffffffffff821115610ae457610ae3610a4e565b5b610aed82610846565b9050602081019050919050565b82818337600083830152505050565b6000610b1c610b1784610ac9565b610aae565b905082815260208101848484011115610b3857610b37610a49565b5b610b43848285610afa565b509392505050565b600082601f830112610b6057610b5f610a44565b5b8135610b70848260208601610b09565b91505092915050565b60008060408385031215610b9057610b8f610784565b5b600083013567ffffffffffffffff811115610bae57610bad610789565b5b610bba85828601610b4b565b925050602083013567ffffffffffffffff811115610bdb57610bda610789565b5b610be785828601610b4b565b9150509250929050565b600073ffffffffffffffffffffffffffffffffffffffff82169050919050565b6000610c1c82610bf1565b9050919050565b610c2c81610c11565b82525050565b6000602082019050610c476000830184610c23565b92915050565b610c568161078e565b82525050565b6000602082019050610c716000830184610c4d565b92915050565b600082825260208201905092915050565b6000610c9382610800565b610c9d8185610c77565b9350610cad81856020860161081c565b610cb681610846565b840191505092915050565b6000606082019050610cd66000830186610c4d565b8181036020830152610ce88185610c88565b90508181036040830152610cfc8184610c88565b9050949350505050565b7f506f6c69637920646f6573206e6f742065786973740000000000000000000000600082015250565b6000610d3c601583610c77565b9150610d4782610d06565b602082019050919050565b60006020820190508181036000830152610d6b81610d2f565b9050919050565b7f4e487b7100000000000000000000000000000000000000000000000000000000600052603260045260246000fd5b7f4e487b7100000000000000000000000000000000000000000000000000000000600052602260045260246000fd5b60006002820490506001821680610de857607f821691505b602082108103610dfb57610dfa610da1565b5b50919050565b7f4f6e6c7920746865206f776e65722063616e20706572666f726d20746869732060008201527f616374696f6e0000000000000000000000000000000000000000000000000000602082015250565b6000610e5d602683610c77565b9150610e6882610e01565b604082019050919050565b60006020820190508181036000830152610e8c81610e50565b9050919050565b60008190508160005260206000209050919050565b60006020601f8301049050919050565b600082821b905092915050565b600060088302610ef57fffffffffffffffffffffffffffffffffffffffffffffffffffffffffffffffff82610eb8565b610eff8683610eb8565b95508019841693508086168417925050509392505050565b6000819050919050565b6000610f3c610f37610f328461078e565b610f17565b61078e565b9050919050565b6000819050919050565b610f5683610f21565b610f6a610f6282610f43565b848454610ec5565b825550505050565b600090565b610f7f610f72565b610f8a818484610f4d565b505050565b5b81811015610fae57610fa3600082610f77565b600181019050610f90565b5050565b601f821115610ff357610fc481610e93565b610fcd84610ea8565b81016020851015610fdc578190505b610ff0610fe885610ea8565b830182610f8f565b50505b505050565b600082821c905092915050565b600061101660001984600802610ff8565b1980831691505092915050565b600061102f8383611005565b9150826002028217905092915050565b61104882610800565b67ffffffffffffffff81111561106157611060610a4e565b5b61106b8254610dd0565b611076828285610fb2565b600060209050601f8311600181146110a95760008415611097578287015190505b6110a18582611023565b865550611109565b601f1984166110b786610e93565b60005b828110156110df578489015182556001820191506020850194506020810190506110ba565b868310156110fc57848901516110f8601f891682611005565b8355505b6001600288020188555050505b505050505050565b7f4e487b7100000000000000000000000000000000000000000000000000000000600052601160045260246000fd5b600061114b8261078e565b91507fffffffffffffffffffffffffffffffffffffffffffffffffffffffffffffffff820361117d5761117c611111565b5b60018201905091905056fea26469706673582212209e65def36b7753735d8e76c59c8e9b5f7b4e5e016333a1b5a99eb87ed69eec5764736f6c63430008180033",
  "linkReferences": {},
  "deployedLinkReferences": {}
}